:100000000C94E4010C942B020C942B020C942B0204
:100010000C942B020C942B020C942B020C942B02AC
:100020000C942B020C942B020C9460200C94342121
:100030000C94A2170C942B020C942B020C942B0200
:100040000C942B020C942B020C942B020C942B027C
:100050000C942B020C94ED170C942B020C942B0295
:100060000C942B020C942B020C942B020C942B025C
:100070000C942B020C942B020C942B020C942B024C
:100080000C942B020C942B020C942B020C942B023C
:100090000C942B020C942B020C942B020C942B022C
:1000A0000C942B020C942B020C942B024168686870
:1000B0002120004B612D7468756E6B212000436C0C
:1000C000616E6B2120004F6F6F66212000486973BD
:1000D000737373737321200057686F6F70732120DF
:1000E000005A6F6E6B212000426966662120004332
:1000F0006C69636B212000437261636B21200042B5
:100100006F6F7021200042656570212000506F6F75
:10011000662120005768616D212000426C616D21CD
:100120002000506F7721200042616461626F6F6D23
:10013000212000506F702120004B61626C616D6D59
:100140006F21200055682C206F68212000506666C2
:1001500066742120004B61626C6F6F65792120000D
:1001600042616E67212000426F6F6D2120004B615C
:10017000626F6F6D212000295D2A5D2B5D2C5D2D46
:100180005D2E5D00572F5D305D315D325D335D3436
:100190005D0000355D365D375D385D395D3A5D0087
:1001A000003B5D3C5D3D5D3E5D3F5D405D000000B0
:1001B000000000000000002A2B28000000000000C2
:1001C0000000000000000000000029000000002CDA
:1001D0001E3420212224342627252E362D37382779
:1001E0001E1F202122232425263333362E37381F85
:1001F0000405060708090A0B0C0D0E0F1011121347
:100200001415161718191A1B1C1D2F3130232D35E4
:100210000405060708090A0B0C0D0E0F1011121326
:100220001415161718191A1B1C1D2F3130354C00C8
:1002300000000000000000000000000000000000BE
:100240000000007E0F00D4FFFFFFC70000007812FF
:10025000036B006500790062006F0061007200644A
:10026000000000160371006D006B006200750069EC
:10027000006C0064006500720000000403090409BA
:10028000023B00020100A0FA090400000103010181
:100290000009211101000122400007058103080027
:1002A0000A090401000103000000092111010001F5
:1002B00022BC000705820320000A12011001000081
:1002C0000008EDFE60600100010200010501090265
:1002D000A10185020901A1000509190129051500DF
:1002E00025019505750181029501750381010501BF
:1002F000093009311581257F950275088106093875
:100300001581257F950175088106050C0A380215AF
:1003100081257F950175088106C0C005010980A16E
:1003200001850319012AB700150126B7009501754B
:10033000108100C0050C0901A101850419012AA042
:1003400002150126A002950175108100C005010962
:1003500006A1018505050719E029E7150025019586
:1003600008750181020507190029EF15002501957F
:10037000F07501810205081901290595057501919E
:1003800002950175039101C005010906A101050748
:1003900019E029E7150025019508750181029501ED
:1003A000750881010507190029FF150026FF009532
:1003B0000675088100050819012905950575019143
:1003C00002950175039101C011241FBECFEFDAE041
:1003D000DEBFCDBF04B603FE27C0809174029091AA
:1003E0007502A0917602B09177028730904BA740BA
:1003F000B04BD1F4109274021092750210927602F2
:100400001092770214BE84B7877F84BF0FB6F8942A
:10041000A8958091600088618093600010926000D0
:100420000FBEE0E0F8E3099511E0A0E0B1E0E0E301
:10043000F7E402C005900D92AA39B107D9F722E07E
:10044000AAE9B1E001C01D92A437B207E1F70E940A
:10045000A21D0C9456230C940000CF93DF93EC0163
:100460008881813021F48EE691E00E94DB0388814F
:10047000823038F00E94EB03CE01DF91CF910C94D3
:10048000A509DF91CF91089589529D458831910545
:1004900070F4FC01E85AFC4DDB0112969C910C941F
:1004A000FA22992321F087E691E00E94DB0381E0A4
:1004B00008959923E1F380E691E0F7CF9923B9F30A
:1004C00085E591E0F2CF992391F38DE491E0EDCFB2
:1004D000992369F384E491E0E8CF992341F389E318
:1004E00091E0E3CF992319F383E391E0DECF9923E1
:1004F000F1F288E291E0D9CF9923C9F282E291E04A
:10050000D4CF9923A1F28BE191E0CFCF992379F257
:1005100084E191E0CACF992351F28DE091E0C5CFFB
:10052000992329F286E091E0C0CF992309F4BFCF47
:100530008FEF90E0BACF992309F4B9CF87EF90E01D
:10054000B4CF992309F4B3CF8FEE90E0AECF9923C7
:1005500009F4ADCF88EE90E0A8CF992309F4A7CF96
:1005600081EE90E0A2CF992309F4A1CF88ED90E02D
:100570009CCF992309F49BCF8DEC90E096CF9923E3
:1005800009F495CF86EC90E090CF992309F48FCFB2
:100590008EEB90E08ACF992309F489CF83EB90E02A
:1005A00084CF992309F483CF8CEA90E07ECF81E059
:1005B00008950C94440208950C94DB021F93CF938A
:1005C000DF9300D000D00F92CDB7DEB749835A83B6
:1005D0006B833091AE0189819A8131111DC06623F0
:1005E000B9F02223A9F00E949614182F682F898150
:1005F0009A810E94421469817A81812F0F900F9015
:100600000F900F900F90DF91CF911F910C94530496
:100610000E946E14182FEFCF0E94961469817A8180
:10062000EDCFFC01262F408151816281738184814D
:100630000C94DE02CF93DF93EC0160E00E94110383
:10064000BE01DF91CF910C94DC02FF920F931F93B8
:10065000CF93DF93E82FF0E0E155FE4FF490C82FE1
:10066000C695C695C695D0E0FE01E15CFD4F0491AC
:10067000877010E0082E02C0159507950A94E2F7DE
:1006800001701127C15DDD4FFE01C491D0E002C0B1
:10069000D595C7958A95E2F7C170DD27011511053B
:1006A00019F081EE0E94320C209719F086EE0E941C
:1006B000320C8F2D0E941A0DCD2B19F086EE0E9460
:1006C000C40C012B41F081EEDF91CF911F910F916E
:1006D000FF900C94C40CDF91CF911F910F91FF906C
:1006E0000895EF92FF920F931F93CF93DF938C01A6
:1006F000F62E8AE0E82EF8018491882309F454C08C
:10070000813009F04DC0E8012196FE0184918130CD
:1007100091F42196FE0184910E941A0D8E010F5FC3
:100720001F4F8F2D815038F3EFE9FFE03197F1F73C
:1007300000C00000F7CF823039F4E8012296FE01B4
:1007400084910E94320CEACF833039F4E80122967A
:10075000FE0184910E94C40CE1CF8430F9F6E801D7
:100760002296FE01249190E080E0FE013196205314
:10077000330B2A30310548F0019780F2EFE9FFE0B2
:100780003197F1F700C00000F7CFE89EA001E99E85
:10079000500D1124C901840F951F2491EF01E5CF5D
:1007A0000E942503E801BACFDF91CF911F910F91ED
:1007B000FF90EF90089560E00C9471030E94DD15A6
:1007C000811102C00E948B160C945F060E948A0A57
:1007D0000C94620608950E94A90F0E94EA032FEF6D
:1007E00084E39CE0215080409040E1F700C000008D
:1007F0000C9411180F931F93CF93DF93EC0161E0DA
:100800000E9411038C01BE010E94EA09BE01C801C9
:100810000E94D902882359F1BE01C8010E94300A02
:10082000882329F1BE01C8010E94EB078823F9F053
:10083000BE01C8010E943D088823C9F0BE01C8015D
:100840000E946009882399F08A81882339F0011574
:100850008CE5180751F00F3D1C4579F0CE01DF9172
:10086000CF911F910F910C94D7020E94EB0380E06F
:10087000DF91CF911F910F9108950E948B16F7CFB2
:1008800008950C94400481E008950C944304CF93A0
:10089000C82F0E9441048C2FCF910C94450490E006
:1008A00080E008950895972F70E027E0929F600DF3
:1008B000711D1124FB019CE1899FE00DF11D1124A4
:1008C000EE0FFF1FE958FE4F859194910895FC01AA
:1008D000EE0FFF1FE15BFD4F859194910895CF933B
:1008E000DF930E9453040E948405EC01811520E5EA
:1008F000920708F042C0811530E4930708F0BDC0AC
:10090000883E910528F5803E910508F09DC0883A03
:10091000910588F4853A910508F08FC081309105E2
:1009200009F492C0009709F48FC0049708F08CC0B6
:10093000D0E0C0E089C08F3B910508F489C0805C9D
:100940009109C03CD105A0F30E946704EC017CC072
:100950008115904250F4C11581E0D80708F074C0A9
:10096000C03FD10528F3D0656FC0C11590E3D9070A
:1009700008F079C0CE019F70E7CF811525E5920779
:1009800058F5811534E5930708F0A6C0811542E5B6
:10099000940750F4C11581E5D80708F471C0DC2F25
:1009A000CC27C16FD06A50C0982F969596959E011E
:1009B00023703327C115D34508F07FC0C1E0D0E0D4
:1009C00002C0CC0FDD1F2A95E2F720E2929FC00102
:1009D0001124C82BD92B6FC0C11589E5D807A8F4FD
:1009E000C11598E5D90708F07CC0C11526E5D207E6
:1009F00008F09ECF8C2F0E941B06C82FD0E0DC2F62
:100A0000CC27CC27DF71D0621FC0C1153AE5D307D0
:100A100008F46CC0CE0190568115904208F088CF42
:100A20008D2F8F710E941B0690E0982F88278827B2
:100A30009F719C012C2BE901E6CFC55AD0E0C65A24
:100A4000DE4FC881D0E0D064CE01DF91CF91089510
:100A5000C85AD0E0CC0FDD1FC45DDE4F0990D881AD
:100A6000C02DD464F1CFCE019927D3FF03C0EC0190
:100A7000D86CEACFEC01D06CE7CFDF70D06AE4CF5E
:100A8000CE01E4E096958795EA95E1F783702C2FE7
:100A900026952695237090E2299F90011124382BEA
:100AA0008C2F8370C1E0D0E002C0CC0FDD1F8A958F
:100AB000E2F7C22BD32BDC68C7CFC1E0D0E002C085
:100AC000CC0FDD1F2A95E2F730E2939FC00111247D
:100AD000C82BD92BDA68B8CFD82FCC27C46FD06AEF
:100AE000B3CFDC2FCC27C06FD06AAECF8C2F8F70E6
:100AF0000E941B0634E0D695C7953A95E1F7CF7072
:100B00009C2FEC01D069A0CF82389105B1F1B0F4EF
:100B10008133910509F475C048F48932910509F4CF
:100B200069C08A32910509F473C00895853391052F
:100B300009F459C08933910501F10895833E910567
:100B4000A9F138F4803E9105F9F0823E910549F112
:100B50000895863E9105A9F1873E9105C9F1843E2D
:100B6000910519F52091660221FF1FC08091650251
:100B700084FD14C087EE90E00895209165022370F3
:100B8000A1F080EE90E008952091650220FD47C01D
:100B90003091660230FF09C024FF44C090E080E03D
:100BA00004C02091650222FDF7CF089520916502CF
:100BB00022FD3BC03091660230FDE3CF24FFF5CF2C
:100BC000EDCF2091650223FFF0CF24FDE7CFD2CFF8
:100BD0002091650223FD2CC03091660231FFEECFDB
:100BE00084EE90E008952091650225FFDECF89E232
:100BF00090E008952091650225FFD7CF85E390E02E
:100C000008952091650226FFD0CF8AE290E00895F2
:100C10002091650226FFC9CF81E390E0089589E322
:100C200090E0089583EE90E0089582EE90E00895BC
:100C300086EE90E008959091650292FF06C0282FFD
:100C400028712830F9F4877F846093FF06C0282F2D
:100C500028712831F1F4877E84612091660220FF9B
:100C600006C0382F38713830D9F4877F816021FF72
:100C700006C0282F28712831D1F4877E816194FD28
:100C8000877E0895282F24712430F9F68B7F8860A1
:100C9000DCCF282F2471243101F78B7E8861DDCFD2
:100CA000382F3171313019F78E7F8860E0CF282FCF
:100CB0002171213121F78E7E8861E1CF08950C9456
:100CC0005E0608950C946106E82FF0E0E35AFD4FAC
:100CD00080810895089580EA8A95F1F70895F8943F
:100CE000E82FE295EF70F0E031A1282F2F7081E01E
:100CF00090E001C0880F2A95EAF7982F90959323EA
:100D000091A392A1892B82A378940895CF93DF9326
:100D100081E90E946F0680E90E946F0684E90E94C3
:100D20006F0686E60E946F06CDE5D1E089910E94AC
:100D30006F0681E0C436D807C9F7109259021092A5
:100D40005D0210925A0210925E0210925B021092A3
:100D50005F0210925C021092600284E00E942907F8
:100D6000DF91CF910C94DE03CF92DF92EF92FF924E
:100D70000F931F93CF93DF93C4E6D1E009E512E010
:100D8000D12CEE24E394F12C8991F894E82FE2958C
:100D9000EF70F0E021A18F70A70102C0440F551F32
:100DA0008A95E2F7CA01922F982B91A392A1809580
:100DB000892382A378940E946B06EDE5F1E030E090
:100DC00020E0C12C4191A42FA295AF70B0E0909685
:100DD0008C9190E04F7002C0959587954A95E2F707
:100DE00080FD33C08E2D022E01C0880F0A94EAF7D1
:100DF000C82A2F5F3F4F2730310521F7FE01319779
:100E000080810E946F06F8018081C81601F1C082BE
:100E100081E0D82A0F5F1F4FF1E0C836DF0709F0E5
:100E2000B3CF2D2D44E06DE572E089E592E00E949C
:100E30002A070E94E6038D2DDF91CF911F910F911C
:100E4000FF90EF90DF90CF90089580E0D1CF80E0C9
:100E5000E0CF0895FF920F931F93CF93DF93F82E67
:100E6000092F162FD72FC42F222349F081E080931A
:100E70009C010E94D21790939B0180939A018091CC
:100E80009C018823A1F080919A0190919B010E947E
:100E9000DE17069760F0EF2DF02FA12FBD2FCE0F9C
:100EA000DF2FD11DEC17FD0741F410929C01DF915B
:100EB000CF911F910F91FF90089581918D93F2CF63
:100EC000AF92BF92CF92DF92EF92FF920F931F9358
:100ED000CF93DF937C015B01C42FD22FFC01828171
:100EE0008823F9F040939F010E94D21790939E01AE
:100EF00080939D0180E28C0F883008F061C0C7703C
:100F000081E001C0880FCA95EAF7DF91CF911F9168
:100F10000F91FF90EF90DF90CF90BF90AF900C9427
:100F20002D0D10919F01141340C080919D0190914F
:100F30009E010E94DE176C01B701C5010E941F12BD
:100F4000C816D90690F5C0E2CD0F1D17B9F080E2A2
:100F5000810F883040F4177081E001C0880F1A9526
:100F6000EAF70E94340DC83048F481E09D2F977055
:100F700001C0880F9A95EAF70E942D0D802F0E94DC
:100F80001A0DC830E8F4D77081E001C0880FDA95F7
:100F9000EAF7DF91CF911F910F91FF90EF90DF90D3
:100FA000CF90BF90AF900C94340D80E28C0F8830BE
:100FB00038F4C77081E001C0880FCA95EAF7E9CF1D
:100FC000DF91CF911F910F91FF90EF90DF90CF9025
:100FD000BF90AF9008950F939C01CB01243F4CE547
:100FE000340759F1A8F4293DFCE53F0701F12A3DFA
:100FF0004CE53407D1F1283D3C4591F406E221EE61
:1010000041EE68ED7CE50E94600780E00F91089555
:10101000263FFCE53F07E9F0B0F0273F3C45F9F0FB
:10102000FC018281882339F110929F01EFCF07E202
:1010300025EE45EE69ED7CE5E6CF06E221EE40EED9
:1010400064EF7CE5E0CF07E225EE44EE65EF7CE55A
:10105000DACF06E221EE42EE66EF7CE5D4CF07E27E
:1010600025EE46EE67EF7CE5CECF08E221E045EEC7
:101070006AED7CE5C8CF81E0C9CFCF93DF93EC0167
:10108000FB018281882309F419C1C230FCE5DF0726
:10109000C0F1C6319CE5D90730F09E012B5F3C457D
:1010A0002930310570F50E94FA15909366028093FD
:1010B0006502C031ECE5DE0709F4CFC008F05BC083
:1010C000C8308CE5D80709F4B6C088F5C430ECE523
:1010D000DE0709F4A8C0C0F4C2308CE5D80709F4D3
:1010E0009CC0809165028260C330DC4509F498C0E1
:1010F00080916502909166020E9408160E94A90FD5
:1011000080E0DF91CF910895809165028061C630C3
:10111000ECE5DE0709F484C0809165028860C73081
:10112000DC4508F47DC080916502806279C0CC30D6
:101130008CE5D80709F489C070F4809165028C6051
:10114000CA30ECE5DE0709F46BC008F478C0809182
:1011500065028E7F65C0CE308CE5D80709F479C072
:10116000809165028B7FCF30DC4508F459C08091B7
:1011700065028F7E55C0CC3FECE5DE0709F457C011
:1011800030F5C3318CE5D80709F46FC078F4C1316C
:10119000ECE5DE0709F465C0C231DC4509F0A8CFF3
:1011A0000E94A90F809165028F773AC0C5318CE506
:1011B000D80709F462C008F476C0809166028160A5
:1011C000CB3FDC4509F094CF8093660291CFC115E7
:1011D000FDE5DF0709F44DC088F4809166028D7F3C
:1011E000CE3F9CE5D90781F3809166028E7FCF3F89
:1011F000DC4550F3809166028360E6CFC230FDE5A6
:10120000DF0709F459C008F444C080E0C330DD456D
:1012100009F06ECF0E948D166BCF809165028160C0
:101220008093650265CF809165028460F9CF8091DB
:1012300066028260C9CF809165028064F1CF0E940E
:10124000A90F809165028068EBCF809165028D7F48
:10125000E7CF80916502877FE3CF809165028F7D24
:10126000DFCF809165028F7BDBCF80916502837F2A
:10127000D7CF809166028C7FA7CF8091650282FBD9
:10128000992790F921E0922790FB82F990FB83F94E
:10129000C7CF80916602982F909591708E7F892B91
:1012A00090FB81F991CF0E94A90F90916502892F3F
:1012B00097FB87F98058B4CF81E0ACCF81E021CF94
:1012C000CF93DF93EB0186319C4511F50E942B15DE
:1012D0009A81992399F08A7A91E009F490E09093A9
:1012E000A001811109C089E20E9406150E947A15A9
:1012F00080E0DF91CF91089585E3F6CF8091A00142
:10130000811104C089E20E940D15F0CF85E3FBCF67
:1013100081E0EFCFCF93DF93EC0181E0898B8F8168
:101320000E942E1588850E9441150E947A15EA8137
:10133000FB81309739F06C897D89CE010696DF916B
:10134000CF910994DF91CF910895EF92FF920F937F
:101350001F93CF93DF93EC018A85811134C0EB801A
:10136000FC8087E5F81A26E12E9DC0012F9D900D87
:101370001124DC01A050BF4F1496ED91FC911597FC
:10138000309731F054966D917C918A5F9E4F09950C
:1013900086E18E9D80018F9D100D112400501F4FFE
:1013A000F80187810E943415F80180850E94471555
:1013B0000E947A15188219861B861E821D82109241
:1013C000A2011092A101DF91CF911F910F91FF9087
:1013D000EF900895DF92EF92FF920F931F93CF93B8
:1013E000DF937C01FB018281882391F080911601BB
:1013F0008F3F71F0C0E0D1E010E000E0DD24D39435
:1014000080911601082E000C990B8017910744F467
:10141000DF91CF911F910F91FF90EF90DF90089592
:101420008E818823C9F089859A858E159F0539F4A8
:101430008091A1019091A2018E159F0569F0DF8630
:10144000FC86EB868989811103C0CE010E948A093E
:10145000CE0106960E94A5090F5F1F4F6696D0CF5A
:10146000EF92FF920F931F93CF93DF937C019755D9
:101470008F3F910509F0D8F520911601022E000C3E
:10148000330B2817390714F480931601FB012281CE
:1014900036E1389F8001399F100D1124E801C050BA
:1014A000DF4F288B92818E81992349F1FA86E98654
:1014B0008F5F8E830E94D2179E878D870E94611551
:1014C0008F830E942B1588870E943E159885892B53
:1014D0008887E881F981309731F06C897D89C8016E
:1014E0008A5F9E4F0995F092A201E092A10181E0EE
:1014F000DF91CF911F910F91FF90EF900895882376
:10150000B1F38989882399F3C8018A5F9E4F0E94AD
:10151000A509EDCFCF92DF92EF92FF920F931F9329
:10152000CF93DF938091160110E006E18F3FF1F534
:10153000DF91CF911F910F91FF90EF90DF90CF90AF
:1015400008950E9DF0010F9DF00D1124E050FF4F06
:10155000C288D388C114D10439F470E060E0818579
:1015600092850E941F126C010E9DE0010F9DD00D0F
:101570001124C050DF4F8E818823B9F08D859E8560
:101580000E94DE17C816D90680F4109F700111243E
:101590008989811105C0C70180509F4F0E948A0927
:1015A000C7018A5F9E4F0E94A5091F5FE12EF12CA3
:1015B00080911601082E000C990B8E159F050CF6D4
:1015C000B7CF9093A8018093A7010895E091A70158
:1015D000F091A801309721F00190F081E02D09945D
:1015E00080E00895E091A701F091A801309799F06B
:1015F00020912B01222359F02091650227FF07C07B
:10160000DC012C9111962C93119725E02C930280EC
:10161000F381E02D09940895E091A701F091A801CC
:10162000309739F022E0DC012C930480F581E02D25
:10163000099408952091A5013091A6012817390732
:1016400071F09093A6018093A501E091A701F0911C
:10165000A801309721F00680F781E02D09940895C4
:101660002091A3013091A4012817390771F09093BC
:10167000A4018093A301E091A701F091A801309704
:1016800021F00084F185E02D0994089585B78068E4
:1016900085BF85B7806885BF0895089508950C9427
:1016A0004D0B08950C94510B0E94460B0E944E0B5B
:1016B0000C944F0B81E008950C945A0B08950895F3
:1016C0000E94C9170E9486060E9465180C94520B4E
:1016D000BF92CF92DF92EF92FF920F931F93CF931F
:1016E000DF93CDB7DEB72A970FB6F894DEBF0FBEF3
:1016F000CDBF0E945E0B0E945F0B0E94B4060E9449
:101700005C0B882309F45EC08AEAC82E81E0D82EDB
:1017100010E000E0B02E802F0E946406E82EF60153
:10172000F1906F01F81609F447C08091280281FDFD
:101730000E946A069F2D9E2580E0FF24F394292FA6
:101740002F21B1F18E83BF82EF2081E009F480E088
:1017500088870E94D2178160782F9A8789874E8167
:101760005F8168858A850E94030CF801E655FE4F6B
:101770008081F826F0820E94131B0E94E60A909155
:10178000A901891781F10E94E60A8093A9012A968E
:101790000FB6F894DEBF0FBECDBFDF91CF911F9182
:1017A0000F91FF90EF90DF90CF90BF900C94470483
:1017B0008F5FFF0C873019F60F5F1F4F0430110544
:1017C00009F0A8CF8FEF89838A831B820E94D217EA
:1017D0008160782F9D838C8349815A816B818D81B3
:1017E0000E94030CC8CF2A960FB6F894DEBF0FBE36
:1017F000CDBFDF91CF911F910F91FF90EF90DF90C0
:10180000CF90BF900895CF93DF93CDB7DEB72B97DE
:101810000FB6F894DEBF0FBECDBF4F8358876987E0
:101820007A878B871E821D8285E0FE013796DE0156
:10183000119601900D928A95E1F749815A816B8149
:101840007C818D819E812B960FB6F894DEBF0FBEF2
:10185000CDBFDF91CF910C942212FC018081918148
:101860000C94D814CF93C82F882309F48BC08238E6
:10187000C1F40E94E60A81FD85C089E30E94061535
:101880000E947A152FEF81EE94E021508040904025
:10189000E1F700C0000089E30E940D15CF910C9480
:1018A0007A158338A1F40E94E60A80FD6BC083E5B7
:1018B0000E9406150E947A152FEF81EE94E02150C8
:1018C00080409040E1F700C0000083E5E5CF843818
:1018D000A1F40E94E60A82FD55C087E40E94061525
:1018E0000E947A152FEF81EE94E0215080409040C5
:1018F000E1F700C0000087E4CFCF8CEF8C0F813A76
:1019000090F46C2F80911701909118010E94A616F7
:10191000882329F08C2F0E940D150E947A158C2F98
:101920000E940615BBCF80E28C0F883048F4C77048
:1019300081E001C0880FCA95EAF70E942E15AECF4C
:10194000EBE5EC0FE33040F4F0E0EA56FE4F808127
:1019500090E0CF910C941A0BE8E5EC0FE73150F4CE
:10196000F0E0EE0FFF1FE859FE4F80819181CF918B
:101970000C94300BC03F30F08C2F0E940D1ACF9189
:101980000C94F81ACF910895882309F452C0823834
:1019900071F40E94E60A81FF4CC089E30E9406159B
:1019A0000E947A1589E30E940D150C947A158338EC
:1019B00059F40E94E60A80FF3CC083E50E940615A8
:1019C0000E947A1583E5EFCF843859F40E94E60A25
:1019D00082FF2FC087E40E9406150E947A1587E4D3
:1019E000E2CF9CEF980F913AF0F290E2980F983086
:1019F00050F4877091E001C0990F8A95EAF7892F1A
:101A00000E943415D2CF9BE5980F933020F490E0DC
:101A100080E00C941A0B98E5980F973120F490E031
:101A200080E00C94300B803F20F00E94751A0C94DB
:101A3000F81A0895CF93C82F0E94320CC93349F485
:101A40002FEF87EE93E0215080409040E1F700C0F7
:101A500000008C2FCF910C94C40C882321F00E949D
:101A60002E150C947A150895882321F00E943415C0
:101A70000C947A150895BF92CF92DF92EF92FF9265
:101A80000F931F93CF93DF936C01D62FC72FFC01C9
:101A9000058102950F70128111110E944E150E944E
:101AA0002415E82E882391F01123D1F08C2F807F0C
:101AB000803421F080E28D0F883090F082E00E9427
:101AC000C5150E94241591E0E82EE926BC2EB2949B
:101AD0009FE0B922EB2DF0E0E059FC4D0C94FA2286
:101AE000E12CF4CF0C2F0F70C07F11F00295007F16
:101AF0001123A9F0002359F080E28D0F883010F0F7
:101B0000D11109C0802F0E942E150E947A158D2FA9
:101B10000E94320C14C0802F0E944115F6CF8D2FE9
:101B20000E94C40C002359F080E28D0F883010F021
:101B3000D1112CC0802F0E9434150E947A152B2DB4
:101B40002850330B2430310520F40E94E60A0E940D
:101B50004704EE2009F49EC10E94201580FD9AC121
:101B6000F60112820E941A150E94A613C6010E9455
:101B70006B0F0E941A15DF91CF911F910F91FF906B
:101B8000EF90DF90CF90BF900C94C713802F0E94EE
:101B90004715D3CFFC2FFF70FF2EC07FC03219F046
:101BA000F29480EFF822DD2369F0D13049F111235E
:101BB00091F1002351F1F601858180FFA8CF8F704C
:101BC000858323C0112381F0011106C00E94611595
:101BD0008F290E942D0DB3CF0130C1F70E946115EE
:101BE0008F290E946715ABCF011106C00E947015A6
:101BF0008F2D0E94340DA3CF013009F4A0CFF6CF72
:101C0000112329F0063008F09ACF8F2DE2CF05304E
:101C100008F095CFEDCF002359F3D93349F4FFEF06
:101C200027EE33E0F15020403040E1F700C00000E3
:101C30008D2F0E94C40C83CF8C2F86958695837040
:101C400069F0813009F07BCF8D2F9C2F937011119B
:101C500002C090E080E00E94300B71CF8D2F9C2F4E
:101C60009370111102C090E080E00E941A0B67CFC0
:101C70008D2F112329F00E940D1A0E94F81A5FCFB0
:101C80000E94751AFACF8C2F837009F041C0111190
:101C900056CF4D2F429546954770440F440F0D2F58
:101CA0000F7010E030E020E0042E04C0000F111F80
:101CB000221F331F0A94D2F760E070E0CB01D4FFFB
:101CC0000FC06FE070E080E090E004C0660F771F07
:101CD000881F991F4A95D2F76095709580959095C9
:101CE000C695C695C370602B712B822B932BC23087
:101CF00049F058F4C13019F00E94581320CF0E94C7
:101D000046131DCF0E946A131ACF0E94441317CFA7
:101D10008695112311F08C2F8170882309F40FCF41
:101D20004D2F429546954770440F440F0D2F0F706D
:101D300010E030E020E0042E04C0000F111F221F2D
:101D4000331F0A94D2F760E070E0CB01D4FF0FC0DC
:101D50006FE070E080E090E004C0660F771F881F9E
:101D6000991F4A95D2F76095709580959095C69584
:101D7000C695C370602B712B822B932BC23049F018
:101D800058F4C13019F00E941D14D9CE0E940B14D2
:101D9000D6CE0E942F14D3CE0E948013D0CECF7007
:101DA000112329F08C2F0E94A6138D2F12CF8D2F77
:101DB0000E94340D8C2F0E94C713C1CED23F89F1EF
:101DC00060F4D03FC9F0D13F29F1112309F442C09A
:101DD00001119DCE8C2F8F7121C0D33F39F1D43F9B
:101DE000A1F7112369F1CF718C2F0E94A61363E034
:101DF0008C2F0E94B015A3CE112341F0053008F0BE
:101E00009ECE8C2F8F710E94EA1399CE063008F077
:101E100096CEF7CF8C2F8F71112369F20E94A613F3
:101E20008ECE8C2F8F711123C9F3C5CF112329F0CA
:101E30008C2F8F710E94911382CE0E948C137FCEC3
:101E400081E00E94C515023008F479CE82E00E943C
:101E5000C51575CE002359F0D93309F0E9CE8FEFBF
:101E600097EEE3E081509040E040E1F7DFCE8C2F29
:101E70008F71A1CF4C2F4F706D2FC6010E944F0460
:101E80000E94BC125CCE4C2F4F706D2FC6010E9479
:101E9000520455CEDF91CF911F910F91FF90EF909B
:101EA000DF90CF90BF9008950F931F93CF93DF9350
:101EB000EC01688179818A810E94E2148C010E9480
:101EC00041140E944313B801CE01DF91CF911F91BD
:101ED0000F910C943B0DCF93DF93EC018B819C8190
:101EE000892B29F08881998189238F3F59F4DF91CB
:101EF000CF910895CE010E94540FCE01DF91CF9172
:101F00000C941A03CE010E94FA038111F3CF0E94B0
:101F10002415882361F38A81882349F382E0DF91C5
:101F2000CF910C94C5150E944E150E945E150E941B
:101F30007A150E941F1C0E94F81A90E080E00E940F
:101F40001A0B90E080E00C94300B0E9414150C9456
:101F5000930F0E943B150C94A50FE92FE295EF70AB
:101F6000E250EE3070F4F0E0E058FC4D0C94FA22B0
:101F7000803F19F020F4883E20F481E00895843FEA
:101F8000E1F380E00895883EC0F3813FD1F7F5CFBB
:101F900093FB882780F908950E94D8140C94AD0F04
:101FA000CF93DF9300D000D00F92CDB7DEB70F9064
:101FB0000F900F900F900F90DF91CF910895CF93D6
:101FC000DF9300D000D000D0CDB7DEB726960FB695
:101FD000F894DEBF0FBECDBFDF91CF9108951F9360
:101FE000CF93DF93C091AF0116E08091B0018C13C5
:101FF00004C0DF91CF911F910895D0E01C9FF001A4
:102000001D9FF00D1124EF54FE4F408151816281DC
:102010007381848195810E94DF0F2196C770E5CF7F
:102020004091E1015091E2016091E3017091E4017E
:102030008091E5019091E6010C94DF0F1F93CF93FF
:10204000DF938091E601807FA9F48091E3018823EA
:1020500089F08091AF01C091B0016091E101709170
:10206000E201A091E401B091E501D62FD72316E05B
:10207000C81304C0DF91CF911F91089590E010978D
:1020800011F0DF3F19F401968770F2CF189F90018D
:10209000199F300D1124F901EF54FE4F4181471370
:1020A000F2CF40814613EFCF42814111ECCF438103
:1020B00054814A1B5B0B4F3A510528F78091E6018A
:1020C0008F7080618093E601F901EA54FE4F8081B0
:1020D0008F708061808381EE91E00E946B0FDF91B1
:1020E000CF911F910C94EF0FAF92BF92CF92DF92DE
:1020F000EF92FF920F931F93CF93DF93CDB7DEB78D
:1021000061970FB6F894DEBF0FBECDBF8C0185E09E
:10211000F801DE011D9601900D928A95E1F7F80114
:1021200040815181E28081EEC82E81E0D82E6091FD
:10213000E4017091E5016115710509F461C19091A7
:10214000E1012091E201892F82238F3F09F458C1D8
:10215000A380B480F090E301F501E61BF70BFF20AC
:1021600009F4FCC08091E601382F307FEF3AF10589
:1021700008F0B2C0311179C0FE2C251323C094138E
:1021800021C0E1101FC08F7080618093E6010E9422
:102190001010C6010E946B0F8091E601F801858343
:1021A0008F2D61960FB6F894DEBF0FBECDBFDF91C5
:1021B000CF911F910F91FF90EF90DF90CF90BF9044
:1021C000AF900895AB2829F0842F85238F3F09F025
:1021D00033C180E0F82FF170DF2E80FF3CC080918A
:1021E000AF012091B00136E0821315C04D875E87A4
:1021F0008D859E850E94D814292F22952F7022301C
:10220000F0F0243018F59F70F1F0F8019581907F7F
:10221000D1F4D12C1EC090E0389FF001399FF00D11
:102220001124EF54FE4F6181651306C06081641371
:1022300003C062816E110FC001968770D5CF9F7069
:1022400011F0882331F3805E883018F3C8010E94B2
:102250006B0FFD2CA5CFEE2009F4A2CF8091E601F3
:1022600081608093E601F12C9BCF251306C0941367
:1022700004C0F801EE2009F48DC04D875E878D857E
:102280009E850E94CC0F882319F1EE2009F18091E0
:10229000E601803270F02091E1013091E20138874F
:1022A0002F831986BB86AA868C87CE0107960E944B
:1022B0006B0F86E0F801A1EEB1E001900D928A95D6
:1022C000E1F70E941E100E941010FF24F39468CFC3
:1022D000C8010E946B0FF9CF311113C07A2DB98A52
:1022E000A88A6E2D89890E94D00F81EE91E00E940C
:1022F0006B0F86E0F60111928A95E9F70E941010A3
:10230000B2CF25130FC094130DC0E1100BC0F8011C
:102310008583C8010E946B0F86E0F60111928A95B1
:10232000E9F73ECF4D875E878D859E850E94CC0F55
:10233000882371F2EE2061F28091E601803208F488
:10234000B8CF2091E1013091E2013A8329831B82C9
:10235000BD82AC828E83CE010196A9CFEF3AF10502
:1023600008F041C0FE2CEE2009F4B2CF25132AC09C
:10237000941328C08091E60180FD1BC0982F907FA8
:10238000C1F0F8018583903F31F0982F907F905FE6
:102390008F70892B8583C8010E946B0F86E0F8013E
:1023A000A1EEB1E001900D928A95E1F70E94101024
:1023B000F7CE86E0F801A1EEB1E001900D928A958A
:1023C000E1F7EECE4D875E878D859E850E94CC0F0E
:1023D00081116FCF8091E60181608093E601C80191
:1023E0000E946B0FDDCE7A2DB98AA88A6E2D89895D
:1023F0000E94D00F86E0F60111928A95E9F7D6CFB8
:10240000EE2009F465CF4D875E878D859E850E94FD
:10241000CC0FF82E882309F45BCF86E0F801A1EEFB
:10242000B1E001900D928A95E1F781EE91E00E9472
:102430002D0C0E941E10BACF81E08E25CBCE8FEAE4
:1024400090E008951F93CF93DF93CDB7DEB72C971D
:102450000FB6F894DEBF0FBECDBF4F835887698794
:102460007A878B879C87CE0107960E9474108823F9
:1024700069F08A859B85892B39F04F815885842F97
:1024800085238F3F09F071C016E05FC086E0FE0132
:102490003796DE01119601900D928A95E1F78A85B3
:1024A0009B85892B89F38F81988589238F3F61F3E1
:1024B0002091B00130E0C9010196877099274091C1
:1024C000AF014817190671F40E94A90F1092B001CC
:1024D0001092AF0186E0E1EEF1E0DF011D928A95F6
:1024E000E9F7D2CF96E0929FD001939FB00D1124CF
:1024F000AF54BE4FFE01319601900D929A95E1F7CF
:102500008093B0010E94EF0FBFCF819FC0011124C3
:102510008F549E4F0E9474108823E9F0E091AF0120
:102520001E9FF0011124EF54FE4F408151816281C2
:102530007381848195810E94DF0F8091AF0190E0CB
:102540000196877099278093AF018091AF01909198
:10255000B0018913DACF2C960FB6F894DEBF0FBE08
:10256000CDBFDF91CF911F91089569857A858B85C5
:102570009C850E94DF0F88CFEF92FF920F931F93ED
:10258000CF93DF938C01892B81F0F12CEE24E3941F
:10259000E8012196F8018491843770F4843008F0C2
:1025A0005FC08130B1F08230A1F1DF91CF911F91F6
:1025B0000F91FF90EF900895853709F44CC008F40F
:1025C0003DC09CE7980F903780F78F770E94C40C2E
:1025D00049C00E5F1F4FFE01849190E2980F983022
:1025E00060F48770FE2D01C0FF0F8A95EAF78F2FE8
:1025F0000E9451150E947A1502C00E94320C8F2D44
:10260000815030F2EFE9FFE03197F1F700C00000B0
:10261000F7CF0E5F1F4FFE01849190E2980F983024
:1026200050F48770FE2D01C0FF0F8A95EAF78F2FB7
:102630000E945715DFCF0E94C40CE1CF0E5F1F4FE1
:10264000FE01C491C150D8F28FE99FE00197F1F7E4
:1026500000C00000F7CF0E5F1F4FFE01F490CFCFF8
:102660000E94320C8E01CBCF08950C9434130E943B
:1026700035136093FF0170930002809301029093E1
:1026800002020C94930F08950C9437130F931F9329
:102690000091FF011091000220910102309102028D
:1026A000602B712B822B932B1F910F910C9437135E
:1026B0000F931F930091FF011091000220910102DE
:1026C0003091020260237123822393231F910F9183
:1026D0000C9437130F931F930091FF011091000288
:1026E00020910102309102026027712782279327EF
:1026F0001F910F910C9437130C9434130C947C138A
:102700000E947E136093FB017093FC018093FD0196
:102710009093FE010C94930F60E070E0CB010C9459
:1027200080130F931F9341E050E060E070E08A0156
:102730009B0104C0000F111F221F331F8A95D2F77F
:10274000C901B8011F910F910C9480130F931F932F
:1027500041E050E060E070E004C0440F551F661F88
:10276000771F8A95D2F78091FB019091FC01A0918F
:10277000FD01B091FE018A019B01082B192B2A2B28
:102780003B2BC901B8011F910F910C9480130F933B
:102790001F9341E050E060E070E004C0440F551F1B
:1027A000661F771F8A95D2F7CB01BA0160957095A5
:1027B000809590950091FB011091FC012091FD0105
:1027C0003091FE0160237123822393231F910F9187
:1027D0000C9480130F931F9341E050E060E070E091
:1027E00004C0440F551F661F771F8A95D2F780914A
:1027F000FB019091FC01A091FD01B091FE018A01C5
:102800009B01082719272A273B27C901B8011F91D7
:102810000F910C9480130F931F930091FB01109163
:10282000FC012091FD013091FE01602B712B822B68
:10283000932B1F910F910C9480130F931F93009172
:10284000FB011091FC012091FD013091FE016023FC
:102850007123822393231F910F910C9480130F9364
:102860001F930091FB011091FC012091FD0130911B
:10287000FE0160277127822793271F910F910C94E7
:102880008013089527E0929F800D1124982F977050
:1028900041E001C0440F9A95EAF7869586958695A2
:1028A00095E0899FF0011124E951FE4F90E080E00E
:1028B00070E05191DF0111979B01082E02C03695FF
:1028C00027950A94E2F721702195252724232527AF
:1028D0002C9301968530910561F7089527E0929F2A
:1028E000800D1124982F977086958695869525E002
:1028F000829FF0011124E951FE4F50E040E080E05A
:10290000219130E0092E02C0369527950A94E2F70E
:1029100021703327042E01C0220F0A94EAF7822B7C
:102920004F5F5F4F4530510559F70895BF92CF92E1
:10293000DF92EF92FF920F931F93CF93DF938C015F
:10294000C090FB01D090FC01E090FD01F090FE01F1
:102950008091FF0190910002A0910102B0910202CA
:10296000C82AD92AEA2AFB2ACFE1D0E0BC2ED70117
:10297000C6010C2E04C0B695A795979587950A9425
:10298000D2F780FD0EC0219788F7B12C8B2DDF91F7
:10299000CF911F910F91FF90EF90DF90CF90BF905C
:1029A0000895B8018C2F0E946F04019761F3EECF58
:1029B000CF93DF93EC010E949614BE01DF91CF917B
:1029C0000C946F041F93CF93DF93EB019091AE01B2
:1029D000992331F0CB01DF91CF911F910C94D81442
:1029E000882379F0CB010E949614182F682FCE010E
:1029F0000E944214BE01812FDF91CF911F910C9450
:102A00006F04CB010E946E14182FF4CF682F8091B1
:102A10001701909118010C942617682F80911701C7
:102A2000909118010C943117809117019091180121
:102A30000C943C17809103028595859585950895A2
:102A4000809103028770089590910302977081E04E
:102A500009F480E00895809127020895909127025B
:102A6000892B8093270208958095909127029823BF
:102A700090932702089510922702089580912602CC
:102A8000089590912602892B8093260208958095BF
:102A90009091260298239093260208951092260280
:102AA000089590912502892B8093250208958095A1
:102AB0009091250298239093250208951092250263
:102AC000089580910402089508950C9464159091DE
:102AD0000402981721F0809304020C946515089560
:102AE00080910402882329F01092040280E00C9463
:102AF00065150895E0911701F09118018091270262
:102B00008083E0911701F091180180819091260255
:102B1000892B8083E0911701F091180180819091B9
:102B20002502892B808390910402992381F0E09102
:102B30001701F09118018081892B80838091170102
:102B4000909118010E94921681110E947015809137
:102B50001701909118010C94F20A08950C94AD1588
:102B600098E0899F90011124622B609303020E94D8
:102B7000A613809103028595859585950C94AE15D5
:102B80001092030280E00C94AE15909103028095A0
:102B9000892380930302282F277071F4282F082E91
:102BA000000C330B9217130639F0859585958595A2
:102BB0000E94C7130C94C015089590E080E00E9415
:102BC0001C2321E08C3E9E4F09F020E0822F0895C7
:102BD00082E090E00C941423682F82E090E00C9443
:102BE000222383E090E00C941423682F83E090E08C
:102BF0000C942223CF9384E090E00E941423C82FEA
:102C000081E290E00E941423982F8C2FCF91089599
:102C1000CF93C92F682F84E090E00E9422236C2F6D
:102C200081E290E0CF910C942223AB01BC018FE0B4
:102C300090E00C943423AB01BC0183E190E00C9450
:102C4000342360E070E0CB010C941B1660E070E070
:102C5000CB010E9415160C9421166CEE7EEF90E0CD
:102C600080E00E94402360E082E090E00E94222306
:102C700060E083E090E00E9422231092FF01109216
:102C80000002109201021092020260E084E090E0E3
:102C90000E94222360E081E290E00E94222360E013
:102CA00085E090E00E94222360E086E090E00E94B0
:102CB00022236FEF87E090E00E94222340E050E063
:102CC000BA0188E090E00E94342360E08DE090E05B
:102CD0000E94222340E050E0BA0188E190E00E9487
:102CE000342360E087E190E00E94222340E050E03E
:102CF000BA018CE190E00E94342360E080E290E031
:102D00000E94222340E050E0BA0188E190E00E9456
:102D100034230C9426160C942D16682F8EE090E028
:102D20000C942223FC01329680912B01882321F000
:102D3000809165029EE187FF96E080E0915008F463
:102D4000089521912223D1F38F5FF8CF662301F1FB
:102D500020912B012223F1F02091650227FF1AC058
:102D6000462F4695469546954E3190F4677021E082
:102D700030E002C0220F331F6A95E2F7840F911DE5
:102D8000FC01828190E02823392381E0232B69F420
:102D900080E00895FC01329608962191261721F0D3
:102DA000E817F907D1F7F4CF81E008959C01FC0101
:102DB00032969FEF80E04191461751F09F3F19F402
:102DC000411101C0982F8F5F8630A9F79F3F09F40A
:102DD0000895290F311D97FD3A95F90162830895F1
:102DE000FC01329608962191261303C0DF0111974A
:102DF0001C92E817F907B9F70895E62FE695E695CE
:102E0000E695EE3168F4E80FF92FF11D677021E0C7
:102E100030E001C0220F6A95EAF78281822B82831B
:102E20000895E62FE695E695E695EE3170F4E80F05
:102E3000F92FF11D677021E030E001C0220F6A9583
:102E4000EAF72095828128232283089520912B017F
:102E5000222329F02091650227FD0C94FD160C9485
:102E6000D61620912B01222329F02091650227FDFF
:102E70000C9411170C94F016FC01329680912B01E2
:102E8000882351F08091650287FF06C08EE1DF0143
:102E90001D928A95E9F7089586E0F9CF089508957F
:102EA0000C944F170E94501780916B02843049F1A7
:102EB0001092290288E190E020E40FB6F894A895DA
:102EC000809360000FBE2093600080E00E94470462
:102ED0000E94501783B7817F846083BF83B781606E
:102EE00083BF7894889583B78E7F83BF0FB6F8949D
:102EF000A8958091600088618093600010926000C6
:102F00000FBE08950895CF930E944E170E94B406F5
:102F10000E948217C0E08C2F0E946406811105C0B8
:102F2000CF5FC430C1F7CF91089581E0FCCF089501
:102F30000C9497170E94A90F0E94E60A0E9447046A
:102F40000C9498171F921FB61F9211248F939F9372
:102F5000AF93BF9380912902811113C080916102C8
:102F600090916202A0916302B09164024196A11D0A
:102F7000B11D8093610290936202A0936302B093AB
:102F80006402BF91AF919F918F911F901FBE1F90C0
:102F9000189582E084BD93E095BD9AEF97BD80932C
:102FA0006E0008952FB7F8948091610290916202AB
:102FB000A0916302B09164022FBF08959C014FB7A6
:102FC000F8948091610290916202A0916302B091A5
:102FD00064024FBF821B930B089578941F921FB613
:102FE0001F9211248F939F93AF93BF93809161029F
:102FF00090916202A0916302B09164020196A11DBA
:10300000B11D8093610290936202A0936302B0931A
:103010006402BF91AF919F918F911F901FBE1F902F
:10302000189587E797E7909301088093000888E157
:103030009AE00FB6F894A895809360000FBE909325
:103040006000FFCFCF92DF92EF92FF920F931F931A
:10305000CF93C0E0E82EF12C8C2F0E94640610E084
:1030600000E0C82ED12CC601002E02C09595879590
:103070000A94E2F780FD11C00F5F1F4F0730110562
:1030800091F7CF5FC43041F780E0CF911F910F914E
:10309000FF90EF90DF90CF900895602F7C2F80E01D
:1030A0000E945304E816F90639F781E0EECFCF937A
:1030B000C82F8CE20E942218882321F08C2FCF91F8
:1030C0000C94221880E0CF910895CF930E94DD15D3
:1030D000811102C00E948B16C5E608C00E94B4068A
:1030E0008FE39CE90197F1F700C00000C150B1F7F0
:1030F00089E20E94571881110BC18AE20E94571879
:1031000081110E948B1685E00E94571881110E9440
:1031100011180E94E8158093280287E00E94571832
:10312000882371F08BE10E945718882309F4CDC0E1
:1031300090912802892F8D7F91FF826080932802D1
:10314000809128020E94EC150E94FA159093660265
:103150008093650280EE0E945718882341F0909179
:103160006502892F8E7F90FF81608093650289E3DD
:103170000E945718882341F090916502892F8D7F16
:1031800091FF82608093650282EE0E945718882327
:1031900041F090916502892F8B7F92FF846080932C
:1031A000650286EE0E945718882341F090916502CF
:1031B000892F877F93FF88608093650283EE0E944A
:1031C0005718882341F090916502892F8F7E94FFD4
:1031D00080618093650285E30E945718882341F03F
:1031E00090916502892F8F7D95FF806280936502A3
:1031F00081E30E945718882341F090916502892F3E
:103200008F7B96FF80648093650281E10E9457184E
:10321000882341F090916502892F97FB87F98058A8
:103220008093650280916502909166020E94081663
:1032300087E20E945718C82F8EE10E94571881110B
:10324000C2608FE10E9457188111C46080E20E9421
:1032500057188111C86081E20E9457188111C0611E
:1032600082E20E9457188111C06283E20E945718BF
:103270008111C06484E20E945718882309F442C077
:10328000C0688C2F0E94F5156C2F70E090E080E0F4
:103290000E9444136091FB017091FC018091FD013B
:1032A0009091FE010E947E138FE00E9457188823A0
:1032B00019F081E00E948D1685E10E94571888233D
:1032C00039F180E0CF910C948D168EE00E94571852
:1032D000882339F090912802892F8B7F92FF846098
:1032E0002DCF80E10E94571890912802882329F061
:1032F000892F877F93FF886021CF892F8E7F90FF52
:1033000081601CCFC111BDCF0E94F115682FBDCFC8
:10331000CF9108958091300280FF12C060911E010C
:1033200085E0689FB001112475956795759567953F
:1033300060387105A8F561157105A1F1862F089512
:1033400081FF09C060911E0185E0689FB0011124D2
:1033500075956795EDCF60911E0182FD0AC0809141
:103360002F028823D1F090911D0160911E018917D1
:1033700028F085E0689FB0011124DACF869FB00164
:10338000112485E0869F9001879F300D1124692FBD
:1033900070E0C9010E94E622CBCF65E070E0CECF9D
:1033A0008FE7089581E008958091300280FF0CC07E
:1033B00060911A0170E0759567957595679561152F
:1033C000710549F1862F089581FF06C060911A01A9
:1033D00070E075956795F3CF60911A0182FD0BC07F
:1033E00090912E029923A1F06091190180911A0108
:1033F000961738F0682F70E06038710500F38FE79A
:103400000895899FC001112470E00E94E622F4CF44
:1034100061E070E0D7CF81E00895803F31F40E94F1
:103420008A198195809334020895813F19F40E948E
:103430008A19F8CF823F31F40E948A1981958093CE
:1034400033020895833F19F40E948A19F8CF893F07
:1034500029F40E94D4198093350208958A3F21F4FB
:103460000E94D4198195F7CF8B3F31F40E94D41973
:1034700081958093360208958C3F19F40E94D419E7
:10348000F8CF843F31F48091320281608093320220
:103490000895853F21F4809132028260F7CF863F04
:1034A00021F4809132028460F1CF873F21F4809132
:1034B00032028860EBCF883F21F480913202806134
:1034C000E5CF8D3F31F480913002816080933002EE
:1034D00008958E3F21F4809130028260F7CF8F3FB4
:1034E000B9F7809130028460F1CF90913302803F30
:1034F00059F48091340287FF0DC01092340291116B
:103500000BC010922F0208C0813F81F480913402D9
:1035100018169CF3992381F0809135029091360220
:10352000892B09F064C010922E020895823F49F45D
:1035300097FFF0CF10923302809134028111ECCFCB
:10354000E0CF833F19F41916ACF3E4CF2091350294
:10355000893F29F41216F4F610923502DBCF8A3F28
:1035600019F427FFD7CFF8CF209136028B3F29F4EB
:1035700027FFD0CF10923602CDCF8C3F19F4121610
:10358000CCF3C8CF843F31F4809132028E7F809398
:103590003202C0CF853F21F4809132028D7FF7CF78
:1035A000863F21F4809132028B7FF1CF873F21F457
:1035B00080913202877FEBCF883F21F480913202E5
:1035C0008F7EE5CF8D3F31F4809130028E7F8093E6
:1035D0003002A0CF8E3F21F4809130028D7FF7CF53
:1035E0008F3F09F097CF809130028B7FF0CF089505
:1035F0000E94D2179C019091330280913402982B43
:1036000021F030932D0220932C029091350280916D
:103610003602982B21F030932B0220932A0281E36B
:1036200092E00C940C0BEF92FF920F931F93CF93A9
:10363000DF9300D000D000D0CDB7DEB786E0E1E365
:10364000F2E0DE01119601900D928A95E1F7E0908B
:103650003302F0903402009135021091360210923C
:1036600033021092340210923502109236028E2DDF
:103670008F2991F080912C0290912D020E94DE17EB
:10368000AC0190912F02992309F43FC080911F0152
:103690008417150608F447C0802F812B91F0809184
:1036A0002A0290912B020E94DE17AC0190912E020B
:1036B000992309F477C080911B018417150608F43B
:1036C0007FC08091330290913402892B9091350212
:1036D000892B90913602892B11F00E94F81A86E00E
:1036E000FE013196A1E3B2E001900D928A95E1F7D7
:1036F00026960FB6F894DEBF0FBECDBFDF91CF91F7
:103700001F910F91FF90EF900895209120018AE082
:10371000289F900111242417350708F0BDCF9F5F23
:1037200090932F0202C09F3FD1F7EE2059F00E94E4
:103730008A199FEF1E140CF491E0899F802D1124AB
:1037400080933302FF2059F00E948A199FEF1F14C3
:103750000CF491E0899F802D1124809334023091E4
:103760003302332309F498CF20913402222309F441
:1037700093CF45EB3403C0011124992359F0909362
:10378000330245EB240390011124332339F03093A5
:10379000340282CF81E080933302F3CF81E08093C3
:1037A00034027ACF20911C018AE0289F90011124D5
:1037B0002417350708F085CF9F5F90932E0202C033
:1037C0009F3FD1F7002359F00E94D4199FEF1016A4
:1037D0000CF491E0899F802D1124809335021123F0
:1037E00059F00E94D4199FEF11160CF491E0899FB3
:1037F000802D11248093360230913502332309F451
:1038000060CF20913602222309F45BCF45EB3403CD
:10381000C0011124992359F09093350245EB2403FC
:1038200090011124332339F0309336024ACF81E0DE
:1038300080933502F3CF81E08093360242CF86E059
:10384000E1E3F2E0DF011D928A95E9F710922F0281
:1038500010922E021092300208958091570208951E
:10386000CF93DF9300D00F92CDB7DEB790916B026C
:10387000943019F589837B836A8382E08093E90021
:103880008FEF9091E800815095FD06C095ED9A95D7
:10389000F1F700008111F5CF8091E80085FF0DC0A0
:1038A00050E040E063E070E0CE0101960E94551EBA
:1038B0008091E8008E778093E8000F900F900F9032
:1038C000DF91CF910895BC0184E00C94301CBC01C1
:1038D00083E00C94301C9C0182E08093E9009FEF10
:1038E0008091E800915085FD06C085ED8A95F1F73D
:1038F00000009111F5CF8091E80085FF0CC050E0E9
:1039000040E066E070E0C9010E94551E8091E80029
:103910008E778093E8000895CF93DF93EC01809138
:103920002B018823B1F18091650287FF32C060E2EC
:1039300082E08093E9008FEF9091E800815095FD3F
:1039400006C095ED9A95F1F700008111F5CF8091B1
:10395000E80085FF1BC080912B0170E050E040E043
:10396000811104C050E040E068E070E0CE010E94A8
:10397000551E8091E8008E778093E80080E2FE017A
:10398000A7E3B2E001900D928A95E1F7DF91CF9124
:10399000089568E081E0CDCF80916A02811109C06D
:1039A0000E94E51F0E9442208091E2008460809383
:1039B000E200089510926A020895089508950C9403
:1039C0009A1742E061EC81E00E94611F42E261ECE3
:1039D00082E00C94611F80916D02833009F45FC016
:1039E00030F48130C1F1823009F49BC008958A30EF
:1039F00009F487C08B3009F46DC0893009F04EC0DE
:103A000080916C02813209F049C0809170029091DE
:103A10007102029708F042C08091E800877F80938E
:103A2000E8008091E80082FF35C09091F30080911A
:103A3000F200029729F48091F1008B7F813021F40C
:103A40008091F100809357028091E8008B778093FA
:103A5000E8000C94951F80916C02813AF9F48091F2
:103A6000E800877F8093E800809170029091710256
:103A7000892B61F460E287E392E070E00E94A41E6B
:103A80008091E8008B778093E800089560E090E0F3
:103A900080E0F3CF80916B028111C3CF08958091B4
:103AA0006C02813AD9F78091700290917102892B52
:103AB000A9F78091E800877F8093E8008091E80073
:103AC00080FFFCCF80912B018093F1008091E80072
:103AD0008E77BDCF80916C02813201F780917002A8
:103AE00090917102892BD1F68091E800877F8093B5
:103AF000E8000E94951F80916E0280932B010C9428
:103B0000A90F80916C02813249F68091E800877F8D
:103B10008093E8000E94951F80916F028093580265
:103B2000089580916C02813A09F0B8CF8091E80045
:103B3000877F8093E8008091E80080FFFCCF809130
:103B40005802C2CF84B7877F84BF0FB6F894A89578
:103B500080916000886180936000109260000FBEC9
:103B600080E890E00FB6F894809361009093610034
:103B70000FBE0E94540B0E94E51F0E9442208091BC
:103B8000E20084608093E20078940E94CB220E943D
:103B9000600B81E291E00E94E10A80916B02853026
:103BA00039F00E94680B0E945E0B0E945F0BF5CFFC
:103BB0000E94521780916902882379F30E9483172B
:103BC000882359F30E943F1EE8CF0C94E71D292F4C
:103BD00033272330310519F168F42130310509F418
:103BE00044C02230310509F445C090E080E030E067
:103BF00020E025C02132310549F122323105A9F7F3
:103C000080E490E028E833E061157105C1F08CEBA9
:103C100090E02CEC32E06130710589F0E6CF992715
:103C20008130910581F0009729F00297F1F6EFE4D9
:103C3000F2E002C0EBE7F2E0849190E09F01FA012C
:103C4000318320830895E3E6F2E0F6CF89E090E047
:103C500021E932E06115710591F389E090E02AEAEB
:103C600032E06130710559F3C0CF82E190E02AEB78
:103C700032E0E5CF8BE390E02FE732E0E0CF80E168
:103C800089BD82E189BD09B400FEFDCF8091D800D5
:103C90008F7D8093D8008091E00082608093E00067
:103CA0008091E00081FDFCCF0895AF92BF92CF924A
:103CB000DF92FF920F931F93CF93DF936C01EB0181
:103CC0008A010E94B41FF82E811123C0011511052D
:103CD00039F0F80180819181C81BD90BC80ED91E1B
:103CE000B12CA12C2097A9F08091E80085FD22C07D
:103CF0008091E8008E778093E80001151105A1F00E
:103D0000F80180819181A80EB91EB182A08285E060
:103D1000F82E8F2DDF91CF911F910F91FF90DF90A3
:103D2000CF90BF90AF9008950E94B41F8823D1F226
:103D3000F82EEFCFF60181916F018093F10021976A
:103D4000FFEFAF1ABF0ACECFFC01809172029091B3
:103D5000730286179707A0F06115710529F49091F9
:103D6000E8009E779093E80090E06115710551F4AA
:103D7000911108C08091E80082FF34C080E008956E
:103D8000BC01F2CF80916B028823C1F18530C1F173
:103D90008091E80083FD30C08091E80082FDEACF89
:103DA0008091E80080FFE1CF8091F3002091F20044
:103DB000382F6115710519F02830310558F091E060
:103DC0002830310509F090E02091E8002E7720930B
:103DD000E800CBCF81918093F100615071092F5F92
:103DE0003F4FE7CF80916B02882341F0853041F04F
:103DF0008091E80083FFBECF81E0089582E00895BE
:103E000083E00895FC0180917202909173028617FD
:103E10009707A0F06115710529F48091E8008E776D
:103E20008093E80090E06115710551F4911108C08C
:103E30008091E80082FF35C080E00895BC01F2CF98
:103E400080916B028823C9F18530C9F18091E80027
:103E500083FD31C08091E80082FDEACF8091E800C7
:103E600080FFE1CF8091F3002091F200382F61159F
:103E7000710519F02830310558F091E028303105EE
:103E800009F090E08091E8008E778093E800CBCF36
:103E900084918093F1003196615071092F5F3F4FFB
:103EA000E6CF80916B02882341F0853041F080910C
:103EB000E80083FFBDCF81E0089582E0089583E0AC
:103EC0000895982F973028F08F708093E90081E053
:103ED00008959093E900242F762F50E0981731F041
:103EE0007091EC002091ED005091F00021FD02C096
:103EF0009F5FE8CF3091EB003E7F3093EB00309135
:103F0000ED003D7F3093ED003091EB003160309358
:103F1000EB007093EC002093ED005093F0002091A3
:103F2000EE0027FDE5CF80E0089580916C0287FFC9
:103F300013C08091E80082FF06C08091E8008B7773
:103F40008093E80004C080916B028111F2CF089544
:103F500080916B028823D9F38091E80080FFF8CF2D
:103F60008091E8008E77ECCF2091E4003091E5005D
:103F700095E6A9012091EC00822F817020FF06C0F8
:103F80008091E80080FF06C080E008952091E8005D
:103F900022FD1AC080916B02882389F0853089F058
:103FA0008091EB0085FD0FC02091E4003091E50089
:103FB00042175307F9F29150E1F684E0089582E048
:103FC000089583E0089581E008950E9453200E949F
:103FD0005B20E0EEF0E0808181608083E8EDF0E03E
:103FE00080818F77808319BCA7EDB0E08C918E7FA4
:103FF0008C9380818F7E808310926A0208950F9344
:104000001F93CF93DF930E9453200E945B20C8ED43
:10401000D0E088818F7788838881806888838881D1
:104020008F7D888319BC10926B02109267021092E8
:1040300069021092680200EE10E0F80180818B7F27
:10404000808388818160888342E060E080E00E9414
:10405000611FE1EEF0E080818E7F8083E2EEF0E090
:10406000808181608083808188608083F801808185
:104070008E7F8083888180618883DF91CF911F91BB
:104080000F910895E8EDF0E080818F7E8083E7ED69
:10409000F0E080818160808384E082BF81E0809352
:1040A0006A020C94FF1FE8EDF0E080818E7F808330
:1040B0001092E20008951092DA001092E100089543
:1040C0001F920F920FB60F9211242F933F934F938D
:1040D0005F936F937F938F939F93AF93BF93EF9370
:1040E000FF938091E10082FF0BC08091E20082FF8C
:1040F00007C08091E1008B7F8093E1000E94CA227B
:104100008091DA0080FF19C08091D80080FF15C02F
:104110008091DA008E7F8093DA008091D90080FF51
:1041200096C080E189BD82E189BD09B400FEFDCF62
:1041300081E080936B020E94CC1C8091E10080FFA3
:1041400019C08091E20080FF15C08091E2008E7F4F
:104150008093E2008091E20080618093E200809190
:10416000D80080628093D80019BC85E080936B02F0
:104170000E94DE1C8091E10084FF2BC08091E20050
:1041800084FF27C080E189BD82E189BD89B5982F70
:10419000917080FFFBCF8091D8008F7D8093D800F5
:1041A0008091E1008F7E8093E1008091E2008F7E1C
:1041B0008093E2008091E20081608093E200809130
:1041C0006702882309F449C084E080936B020E944F
:1041D000DF1C8091E10083FF29C08091E20083FF12
:1041E00025C08091E100877F8093E10082E0809389
:1041F0006B02109267028091E1008E7F8093E10054
:104200008091E2008E7F8093E2008091E2008061E5
:104210008093E20042E060E080E00E94611F8091B4
:10422000F00088608093F0000E94DD1CFF91EF9108
:10423000BF91AF919F918F917F916F915F914F91BE
:104240003F912F910F900FBE0F901F90189519BCA2
:1042500010926B020E94DA1C70CF8091E30087FD00
:1042600093E090936B02B3CF1F920F920FB60F9211
:1042700011242F933F934F935F936F937F938F936B
:104280009F93AF93BF93CF93DF93EF93FF93D0911F
:10429000E900DF708091EC00C82FC17080FDC0E89C
:1042A0001092E9008091F000877F8093F00078946D
:1042B0000E9478211092E9008091F000886080933C
:1042C000F000CD2BCF70C093E900FF91EF91DF910B
:1042D000CF91BF91AF919F918F917F916F915F919E
:1042E0004F913F912F910F900FBE0F901F901895F7
:1042F0001F93CF93DF93CDB7DEB7AA970FB6F8948D
:10430000DEBF0FBECDBF8CE692E02091F100FC0134
:104310002193CF01F2E084379F07B9F70E94EB1C8D
:104320008091E80083FF1EC180916C0290916D0224
:104330009A3008F017C1E92FF0E0E257FC4D0C94D9
:10434000FA22803899F0823809F00CC1809170020D
:104350008F70873008F006C18093E9008091EB00F0
:1043600085FB882780F91092E90006C080916802D9
:1043700090916902911182609091E800977F9093EB
:10438000E8008093F1001092F1008091E8008E77B0
:10439000E5C0882309F4D3C0823009F0E3C08091DE
:1043A0006E028111D6C0809170028F702FEF280F9E
:1043B000263008F0D7C08093E9002091EB0020FF61
:1043C000C8C0933031F48091EB0080628093EB00A1
:1043D000C0C09091EB0090619093EB0021E030E041
:1043E00001C0220F8A95EAF72093EA001092EA00B2
:1043F0008091EB008860EACF8111B4C010916E0209
:104400001F778091E3008078812B8093E300809177
:10441000E800877F8093E8000E94951F8091E80064
:1044200080FFFCCF8091E30080688093E30082E00E
:10443000111183E080936B0295C08058823008F0A0
:1044400091C080916E0290916F028C3D23E09207A3
:10445000A1F583E08A838AE289834FB7F894DE016D
:10446000139620E03EE051E2E32FF0E05093570036
:10447000E49120FF03C0E295EF703F5FEF708E2F55
:1044800090E0EA30C0F0C7968D939D932F5F243162
:1044900059F74FBF8091E800877F8093E8006AE278
:1044A00070E0CE0101960E94A41E8091E8008B77F7
:1044B0008093E80057C0C096E7CF6091700270917A
:1044C0007102AE014F5F5F4F0E94E51DBC01892B59
:1044D00009F448C09091E800977F9093E8008981A3
:1044E0009A810E94021FE1CF8038E1F58091E800B7
:1044F000877F8093E800809167028093F10045CF29
:10450000811130C090916E02923060F58091E80088
:10451000877F8093E800909367020E94951F8091A7
:104520006702882311F084E005C08091E30087FDD5
:10453000FACF81E080936B020E94E11C13C080914E
:104540006E02813079F481E0933009F080E080934D
:1045500069021092E9008091E800877F8093E8006B
:104560000E94951F8091E80083FF0AC08091E800B7
:10457000877F8093E8008091EB0080628093EB005E
:10458000AA960FB6F894DEBF0FBECDBFDF91CF91D4
:104590001F9108950895CF9380916B028823A1F015
:1045A000C091E900CF709091EC00892F817090FD4F
:1045B00080E8C82B1092E9008091E80083FD0E94FA
:1045C0007821CF70C093E900CF91089597FB072E13
:1045D00016F4009407D077FD09D00E94002307FC51
:1045E00005D03EF4909581959F4F08957095619503
:1045F0007F4F0895EE0FFF1F0590F491E02D099471
:10460000AA1BBB1B51E107C0AA1FBB1FA617B707F8
:1046100010F0A61BB70B881F991F5A95A9F7809514
:104620009095BC01CD010895F999FECF92BD81BD51
:10463000F89A992780B50895A8E1B0E042E050E0EB
:104640000C944823262FF999FECF92BD81BDF89A8C
:10465000019700B4021639F01FBA20BD0FB6F894C6
:10466000FA9AF99A0FBE08950396272F0E942323E2
:104670000E942223252F0E942323242F0C942323DE
:104680000196272F0E9423230C942223DC01CB01C7
:10469000FC01F999FECF06C0F2BDE1BDF89A319652
:1046A00000B40D9241505040B8F70895F894FFCFF0
:1046B000510259025E02630268026D0272027702C1
:1046C0007C02810286028B02900295029B02A1026B
:1046D000A702AD02B302B902BF02C502CB02D102EA
:1046E000720D720DCA0DCA0D1C0E380E9F0D9F0D56
:1046F000430ECF0EDE0EDE0E3A0F9F0D9F0D430FC1
:10470000B80FB80FC10FC10FC30FC10FC10FC10F39
:10471000B80FB80FC80FC10FC10FC80FA121C92111
:10472000B222C921B222FC211D22B222742280228F
:1047300000002D020000000000000000000000004A
:10474000000000000000FF05022808641E140A3261
:104750001E2D1C8C1C6B1C671C631C01E200E900F5
:10476000EA00B500B600B700CD008301CC008A0195
:10477000920194012102230224022502260227022B
:104780002A02B300B4006F007000818283F4F5F652
:10479000F731339791909466E200E900EA00B500A2
:1047A000B600B700CD008301CC008A0192019401CC
:1047B0002102230224022502260227022A02B30034
:0A47C000B4006F00700081828300D6
:00000001FF
